{
  "contractName": "BeggarBetting",
  "abi": [
    {
      "constant": true,
      "inputs": [
        {
          "name": "",
          "type": "address"
        }
      ],
      "name": "betterNumWinning",
      "outputs": [
        {
          "name": "",
          "type": "uint32"
        }
      ],
      "payable": false,
      "stateMutability": "view",
      "type": "function"
    },
    {
      "constant": true,
      "inputs": [
        {
          "name": "",
          "type": "address"
        }
      ],
      "name": "betterBalance",
      "outputs": [
        {
          "name": "",
          "type": "uint256"
        }
      ],
      "payable": false,
      "stateMutability": "view",
      "type": "function"
    },
    {
      "constant": true,
      "inputs": [],
      "name": "owner",
      "outputs": [
        {
          "name": "",
          "type": "address"
        }
      ],
      "payable": false,
      "stateMutability": "view",
      "type": "function"
    },
    {
      "constant": true,
      "inputs": [
        {
          "name": "",
          "type": "address"
        },
        {
          "name": "",
          "type": "uint256"
        }
      ],
      "name": "betterBettingInfo",
      "outputs": [
        {
          "name": "matchId",
          "type": "uint256"
        },
        {
          "name": "homeTeamScore",
          "type": "uint16"
        },
        {
          "name": "awayTeamScore",
          "type": "uint16"
        },
        {
          "name": "bettingPrice",
          "type": "uint64"
        },
        {
          "name": "isWinner",
          "type": "bool"
        },
        {
          "name": "hasReceivedPrize",
          "type": "bool"
        },
        {
          "name": "winningPrize",
          "type": "uint256"
        },
        {
          "name": "numOfWinners",
          "type": "uint32"
        },
        {
          "name": "numOfBetters",
          "type": "uint32"
        }
      ],
      "payable": false,
      "stateMutability": "view",
      "type": "function"
    },
    {
      "constant": true,
      "inputs": [
        {
          "name": "",
          "type": "uint256"
        },
        {
          "name": "",
          "type": "uint256"
        }
      ],
      "name": "matchBettingInfo",
      "outputs": [
        {
          "name": "better",
          "type": "address"
        },
        {
          "name": "matchId",
          "type": "uint256"
        },
        {
          "name": "homeTeamScore",
          "type": "uint16"
        },
        {
          "name": "awayTeamScore",
          "type": "uint16"
        },
        {
          "name": "bettingPrice",
          "type": "uint64"
        }
      ],
      "payable": false,
      "stateMutability": "view",
      "type": "function"
    },
    {
      "inputs": [],
      "payable": false,
      "stateMutability": "nonpayable",
      "type": "constructor"
    },
    {
      "payable": true,
      "stateMutability": "payable",
      "type": "fallback"
    },
    {
      "constant": false,
      "inputs": [
        {
          "name": "_matchId",
          "type": "uint256"
        },
        {
          "name": "_homeTeamScore",
          "type": "uint16"
        },
        {
          "name": "_awayTeamScore",
          "type": "uint16"
        },
        {
          "name": "_bettingPrice",
          "type": "uint64"
        }
      ],
      "name": "placeBet",
      "outputs": [
        {
          "name": "",
          "type": "bool"
        }
      ],
      "payable": true,
      "stateMutability": "payable",
      "type": "function"
    },
    {
      "constant": false,
      "inputs": [
        {
          "name": "_matchId",
          "type": "uint256"
        },
        {
          "name": "_homeTeamScore",
          "type": "uint16"
        },
        {
          "name": "_awayTeamScore",
          "type": "uint16"
        },
        {
          "name": "_bettingPrice",
          "type": "uint64"
        }
      ],
      "name": "claimPrizes",
      "outputs": [
        {
          "name": "",
          "type": "bool"
        }
      ],
      "payable": false,
      "stateMutability": "nonpayable",
      "type": "function"
    },
    {
      "constant": true,
      "inputs": [
        {
          "name": "_better",
          "type": "address"
        },
        {
          "name": "_matchId",
          "type": "uint256"
        },
        {
          "name": "_bettingPrice",
          "type": "uint64"
        }
      ],
      "name": "checkDuplicateMatchId",
      "outputs": [
        {
          "name": "",
          "type": "bool"
        }
      ],
      "payable": false,
      "stateMutability": "view",
      "type": "function"
    },
    {
      "constant": true,
      "inputs": [
        {
          "name": "_better",
          "type": "address"
        },
        {
          "name": "_matchId",
          "type": "uint256"
        },
        {
          "name": "_bettingPrice",
          "type": "uint64"
        }
      ],
      "name": "checkPrizeAlreadyReceived",
      "outputs": [
        {
          "name": "",
          "type": "bool"
        }
      ],
      "payable": false,
      "stateMutability": "view",
      "type": "function"
    },
    {
      "constant": true,
      "inputs": [
        {
          "name": "_better",
          "type": "address"
        }
      ],
      "name": "getBetterBettingInfo",
      "outputs": [
        {
          "name": "",
          "type": "uint256[]"
        },
        {
          "name": "",
          "type": "uint16[]"
        },
        {
          "name": "",
          "type": "uint16[]"
        },
        {
          "name": "",
          "type": "uint64[]"
        }
      ],
      "payable": false,
      "stateMutability": "view",
      "type": "function"
    },
    {
      "constant": true,
      "inputs": [
        {
          "name": "_better",
          "type": "address"
        }
      ],
      "name": "getBetterBettingInfo2",
      "outputs": [
        {
          "name": "",
          "type": "bool[]"
        },
        {
          "name": "",
          "type": "bool[]"
        },
        {
          "name": "",
          "type": "uint256[]"
        },
        {
          "name": "",
          "type": "uint32[]"
        },
        {
          "name": "",
          "type": "uint32[]"
        }
      ],
      "payable": false,
      "stateMutability": "view",
      "type": "function"
    },
    {
      "constant": true,
      "inputs": [
        {
          "name": "_matchId",
          "type": "uint256"
        },
        {
          "name": "_bettingPrice",
          "type": "uint64"
        }
      ],
      "name": "getNumOfBettersForMatchAndPrice",
      "outputs": [
        {
          "name": "",
          "type": "uint32"
        }
      ],
      "payable": false,
      "stateMutability": "view",
      "type": "function"
    },
    {
      "constant": true,
      "inputs": [
        {
          "name": "_better",
          "type": "address"
        }
      ],
      "name": "getBetterNumOfWinnings",
      "outputs": [
        {
          "name": "",
          "type": "uint32"
        }
      ],
      "payable": false,
      "stateMutability": "view",
      "type": "function"
    },
    {
      "constant": true,
      "inputs": [],
      "name": "getInfoPanel",
      "outputs": [
        {
          "name": "",
          "type": "uint32"
        },
        {
          "name": "",
          "type": "uint32"
        },
        {
          "name": "",
          "type": "uint32"
        },
        {
          "name": "",
          "type": "uint32"
        }
      ],
      "payable": false,
      "stateMutability": "view",
      "type": "function"
    }
  ],
  "bytecode": "0x608060405234801561001057600080fd5b50336000806101000a81548173ffffffffffffffffffffffffffffffffffffffff021916908373ffffffffffffffffffffffffffffffffffffffff160217905550612616806100606000396000f3006080604052600436106100d0576000357c0100000000000000000000000000000000000000000000000000000000900463ffffffff1680630b62f0f3146100d25780634244e09f146101355780635b78c977146102a5578063860273221461031e5780638da5cb5b146103755780639a79a289146103cc5780639b62d3ae14610445578063c573902d14610522578063c9a56efd14610592578063cfc3a96c1461074a578063d2225635146107bf578063d5f72d9d14610822578063de9a2b531461088a578063e9c811dc14610941575b005b3480156100de57600080fd5b50610113600480360381019080803573ffffffffffffffffffffffffffffffffffffffff1690602001909291905050506109a2565b604051808263ffffffff1663ffffffff16815260200191505060405180910390f35b34801561014157600080fd5b50610176600480360381019080803573ffffffffffffffffffffffffffffffffffffffff1690602001909291905050506109c5565b6040518080602001806020018060200180602001858103855289818151815260200191508051906020019060200280838360005b838110156101c55780820151818401526020810190506101aa565b50505050905001858103845288818151815260200191508051906020019060200280838360005b838110156102075780820151818401526020810190506101ec565b50505050905001858103835287818151815260200191508051906020019060200280838360005b8381101561024957808201518184015260208101905061022e565b50505050905001858103825286818151815260200191508051906020019060200280838360005b8381101561028b578082015181840152602081019050610270565b505050509050019850505050505050505060405180910390f35b3480156102b157600080fd5b50610304600480360381019080803573ffffffffffffffffffffffffffffffffffffffff16906020019092919080359060200190929190803567ffffffffffffffff169060200190929190505050610d57565b604051808215151515815260200191505060405180910390f35b34801561032a57600080fd5b5061035f600480360381019080803573ffffffffffffffffffffffffffffffffffffffff169060200190929190505050610ec7565b6040518082815260200191505060405180910390f35b34801561038157600080fd5b5061038a610edf565b604051808273ffffffffffffffffffffffffffffffffffffffff1673ffffffffffffffffffffffffffffffffffffffff16815260200191505060405180910390f35b3480156103d857600080fd5b5061042b600480360381019080803573ffffffffffffffffffffffffffffffffffffffff16906020019092919080359060200190929190803567ffffffffffffffff169060200190929190505050610f04565b604051808215151515815260200191505060405180910390f35b34801561045157600080fd5b50610490600480360381019080803573ffffffffffffffffffffffffffffffffffffffff169060200190929190803590602001909291905050506110e5565b604051808a81526020018961ffff1661ffff1681526020018861ffff1661ffff1681526020018767ffffffffffffffff1667ffffffffffffffff16815260200186151515158152602001851515151581526020018481526020018363ffffffff1663ffffffff1681526020018263ffffffff1663ffffffff168152602001995050505050505050505060405180910390f35b34801561052e57600080fd5b506105376111b9565b604051808563ffffffff1663ffffffff1681526020018463ffffffff1663ffffffff1681526020018363ffffffff1663ffffffff1681526020018263ffffffff1663ffffffff16815260200194505050505060405180910390f35b34801561059e57600080fd5b506105d3600480360381019080803573ffffffffffffffffffffffffffffffffffffffff169060200190929190505050611219565b60405180806020018060200180602001806020018060200186810386528b818151815260200191508051906020019060200280838360005b8381101561062657808201518184015260208101905061060b565b5050505090500186810385528a818151815260200191508051906020019060200280838360005b8381101561066857808201518184015260208101905061064d565b50505050905001868103845289818151815260200191508051906020019060200280838360005b838110156106aa57808201518184015260208101905061068f565b50505050905001868103835288818151815260200191508051906020019060200280838360005b838110156106ec5780820151818401526020810190506106d1565b50505050905001868103825287818151815260200191508051906020019060200280838360005b8381101561072e578082015181840152602081019050610713565b505050509050019a505050505050505050505060405180910390f35b34801561075657600080fd5b506107a560048036038101908080359060200190929190803561ffff169060200190929190803561ffff169060200190929190803567ffffffffffffffff169060200190929190505050611669565b604051808215151515815260200191505060405180910390f35b3480156107cb57600080fd5b50610800600480360381019080803573ffffffffffffffffffffffffffffffffffffffff1690602001909291905050506119c5565b604051808263ffffffff1663ffffffff16815260200191505060405180910390f35b61087060048036038101908080359060200190929190803561ffff169060200190929190803561ffff169060200190929190803567ffffffffffffffff169060200190929190505050611a1e565b604051808215151515815260200191505060405180910390f35b34801561089657600080fd5b506108bf6004803603810190808035906020019092919080359060200190929190505050611de9565b604051808673ffffffffffffffffffffffffffffffffffffffff1673ffffffffffffffffffffffffffffffffffffffff1681526020018581526020018461ffff1661ffff1681526020018361ffff1661ffff1681526020018267ffffffffffffffff1667ffffffffffffffff1681526020019550505050505060405180910390f35b34801561094d57600080fd5b5061098060048036038101908080359060200190929190803567ffffffffffffffff169060200190929190505050611e8b565b604051808263ffffffff1663ffffffff16815260200191505060405180910390f35b60046020528060005260406000206000915054906101000a900463ffffffff1681565b60608060608060006060806060806000600260008c73ffffffffffffffffffffffffffffffffffffffff1673ffffffffffffffffffffffffffffffffffffffff16815260200190815260200160002080549050955085604051908082528060200260200182016040528015610a495781602001602082028038833980820191505090505b50945085604051908082528060200260200182016040528015610a7b5781602001602082028038833980820191505090505b50935085604051908082528060200260200182016040528015610aad5781602001602082028038833980820191505090505b50925085604051908082528060200260200182016040528015610adf5781602001602082028038833980820191505090505b509150600090505b85811015610d3e57600260008c73ffffffffffffffffffffffffffffffffffffffff1673ffffffffffffffffffffffffffffffffffffffff16815260200190815260200160002081815481101515610b3b57fe5b9060005260206000209060040201600001548582815181101515610b5b57fe5b9060200190602002018181525050600260008c73ffffffffffffffffffffffffffffffffffffffff1673ffffffffffffffffffffffffffffffffffffffff16815260200190815260200160002081815481101515610bb557fe5b906000526020600020906004020160010160009054906101000a900461ffff168482815181101515610be357fe5b9060200190602002019061ffff16908161ffff1681525050600260008c73ffffffffffffffffffffffffffffffffffffffff1673ffffffffffffffffffffffffffffffffffffffff16815260200190815260200160002081815481101515610c4757fe5b906000526020600020906004020160010160029054906101000a900461ffff168382815181101515610c7557fe5b9060200190602002019061ffff16908161ffff1681525050600260008c73ffffffffffffffffffffffffffffffffffffffff1673ffffffffffffffffffffffffffffffffffffffff16815260200190815260200160002081815481101515610cd957fe5b906000526020600020906004020160010160049054906101000a900467ffffffffffffffff168282815181101515610d0d57fe5b9060200190602002019067ffffffffffffffff16908167ffffffffffffffff16815250508080600101915050610ae7565b8484848499509950995099505050505050509193509193565b6000806000600260008773ffffffffffffffffffffffffffffffffffffffff1673ffffffffffffffffffffffffffffffffffffffff168152602001908152602001600020805490509150600090505b81811015610eb95784600260008873ffffffffffffffffffffffffffffffffffffffff1673ffffffffffffffffffffffffffffffffffffffff16815260200190815260200160002082815481101515610dfb57fe5b906000526020600020906004020160000154148015610e9e57508367ffffffffffffffff16600260008873ffffffffffffffffffffffffffffffffffffffff1673ffffffffffffffffffffffffffffffffffffffff16815260200190815260200160002082815481101515610e6c57fe5b906000526020600020906004020160010160049054906101000a900467ffffffffffffffff1667ffffffffffffffff16145b15610eac5760019250610ebe565b8080600101915050610da6565b600092505b50509392505050565b60036020528060005260406000206000915090505481565b6000809054906101000a900473ffffffffffffffffffffffffffffffffffffffff1681565b6000806000600260008773ffffffffffffffffffffffffffffffffffffffff1673ffffffffffffffffffffffffffffffffffffffff168152602001908152602001600020805490509150600090505b818110156110d75784600260008873ffffffffffffffffffffffffffffffffffffffff1673ffffffffffffffffffffffffffffffffffffffff16815260200190815260200160002082815481101515610fa857fe5b90600052602060002090600402016000015414801561104b57508367ffffffffffffffff16600260008873ffffffffffffffffffffffffffffffffffffffff1673ffffffffffffffffffffffffffffffffffffffff1681526020019081526020016000208281548110151561101957fe5b906000526020600020906004020160010160049054906101000a900467ffffffffffffffff1667ffffffffffffffff16145b156110ca57600260008773ffffffffffffffffffffffffffffffffffffffff1673ffffffffffffffffffffffffffffffffffffffff1681526020019081526020016000208181548110151561109c57fe5b9060005260206000209060040201600101600d9054906101000a900460ff16156110c957600192506110dc565b5b8080600101915050610f53565b600092505b50509392505050565b60026020528160005260406000208181548110151561110057fe5b9060005260206000209060040201600091509150508060000154908060010160009054906101000a900461ffff16908060010160029054906101000a900461ffff16908060010160049054906101000a900467ffffffffffffffff169080600101600c9054906101000a900460ff169080600101600d9054906101000a900460ff16908060020154908060030160009054906101000a900463ffffffff16908060030160049054906101000a900463ffffffff16905089565b600080600080600560009054906101000a900463ffffffff16600560049054906101000a900463ffffffff16600560089054906101000a900463ffffffff166005600c9054906101000a900463ffffffff16935093509350935090919293565b6060806060806060600060608060608060606000600260008e73ffffffffffffffffffffffffffffffffffffffff1673ffffffffffffffffffffffffffffffffffffffff168152602001908152602001600020805490509650866040519080825280602002602001820160405280156112a15781602001602082028038833980820191505090505b509550866040519080825280602002602001820160405280156112d35781602001602082028038833980820191505090505b509450866040519080825280602002602001820160405280156113055781602001602082028038833980820191505090505b509350866040519080825280602002602001820160405280156113375781602001602082028038833980820191505090505b509250866040519080825280602002602001820160405280156113695781602001602082028038833980820191505090505b509150600090505b8681101561164a57600260008e73ffffffffffffffffffffffffffffffffffffffff1673ffffffffffffffffffffffffffffffffffffffff168152602001908152602001600020818154811015156113c557fe5b9060005260206000209060040201600101600c9054906101000a900460ff1686828151811015156113f257fe5b9060200190602002019015159081151581525050600260008e73ffffffffffffffffffffffffffffffffffffffff1673ffffffffffffffffffffffffffffffffffffffff1681526020019081526020016000208181548110151561145257fe5b9060005260206000209060040201600101600d9054906101000a900460ff16858281518110151561147f57fe5b9060200190602002019015159081151581525050600260008e73ffffffffffffffffffffffffffffffffffffffff1673ffffffffffffffffffffffffffffffffffffffff168152602001908152602001600020818154811015156114df57fe5b90600052602060002090600402016002015484828151811015156114ff57fe5b9060200190602002018181525050600260008e73ffffffffffffffffffffffffffffffffffffffff1673ffffffffffffffffffffffffffffffffffffffff1681526020019081526020016000208181548110151561155957fe5b906000526020600020906004020160030160009054906101000a900463ffffffff16838281518110151561158957fe5b9060200190602002019063ffffffff16908163ffffffff1681525050600260008e73ffffffffffffffffffffffffffffffffffffffff1673ffffffffffffffffffffffffffffffffffffffff168152602001908152602001600020818154811015156115f157fe5b906000526020600020906004020160030160049054906101000a900463ffffffff16828281518110151561162157fe5b9060200190602002019063ffffffff16908163ffffffff16815250508080600101915050611371565b85858585859b509b509b509b509b505050505050505091939590929450565b600080600080600080600080600160008d8152602001908152602001600020805490509650600095506000945060009350600092506116a9338d8b610f04565b915081156116b657600080fd5b600090505b868110156117e4578867ffffffffffffffff16600160008e8152602001908152602001600020828154811015156116ee57fe5b906000526020600020906003020160020160049054906101000a900467ffffffffffffffff1667ffffffffffffffff1614156117d75785806001019650508a61ffff16600160008e81526020019081526020016000208281548110151561175157fe5b906000526020600020906003020160020160009054906101000a900461ffff1661ffff161480156117c857508961ffff16600160008e8152602001908152602001600020828154811015156117a257fe5b906000526020600020906003020160020160029054906101000a900461ffff1661ffff16145b156117d65784806001019550505b5b80806001019150506116bb565b60018563ffffffff16141561189557606460038763ffffffff168b020267ffffffffffffffff1681151561181457fe5b0467ffffffffffffffff169250828663ffffffff168a0267ffffffffffffffff1603600360003373ffffffffffffffffffffffffffffffffffffffff1673ffffffffffffffffffffffffffffffffffffffff16815260200190815260200160002081905550828663ffffffff168a0267ffffffffffffffff16039350611994565b60018563ffffffff16111561199357606460038663ffffffff168863ffffffff168c0267ffffffffffffffff168115156118cb57fe5b040267ffffffffffffffff168115156118e057fe5b0467ffffffffffffffff169250828563ffffffff168763ffffffff168b0267ffffffffffffffff1681151561191157fe5b0467ffffffffffffffff1603600360003373ffffffffffffffffffffffffffffffffffffffff1673ffffffffffffffffffffffffffffffffffffffff16815260200190815260200160002081905550828563ffffffff168763ffffffff168b0267ffffffffffffffff1681151561198457fe5b0467ffffffffffffffff160393505b5b61199d83611f3e565b6119a5611fcf565b6119b28c8a86888a6120d0565b6001975050505050505050949350505050565b6000600460008373ffffffffffffffffffffffffffffffffffffffff1673ffffffffffffffffffffffffffffffffffffffff16815260200190815260200160002060009054906101000a900463ffffffff169050919050565b600080348367ffffffffffffffff16141515611a3957600080fd5b611a44338785610d57565b90508015611a5157600080fd5b6001600087815260200190815260200160002060a0604051908101604052803373ffffffffffffffffffffffffffffffffffffffff1681526020018881526020018761ffff1681526020018661ffff1681526020018567ffffffffffffffff168152509080600181540180825580915050906001820390600052602060002090600302016000909192909190915060008201518160000160006101000a81548173ffffffffffffffffffffffffffffffffffffffff021916908373ffffffffffffffffffffffffffffffffffffffff1602179055506020820151816001015560408201518160020160006101000a81548161ffff021916908361ffff16021790555060608201518160020160026101000a81548161ffff021916908361ffff16021790555060808201518160020160046101000a81548167ffffffffffffffff021916908367ffffffffffffffff160217905550505050600260003373ffffffffffffffffffffffffffffffffffffffff1673ffffffffffffffffffffffffffffffffffffffff168152602001908152602001600020610120604051908101604052808881526020018761ffff1681526020018661ffff1681526020018567ffffffffffffffff16815260200160001515815260200160001515815260200160008152602001600063ffffffff168152602001600063ffffffff16815250908060018154018082558091505090600182039060005260206000209060040201600090919290919091506000820151816000015560208201518160010160006101000a81548161ffff021916908361ffff16021790555060408201518160010160026101000a81548161ffff021916908361ffff16021790555060608201518160010160046101000a81548167ffffffffffffffff021916908367ffffffffffffffff160217905550608082015181600101600c6101000a81548160ff02191690831515021790555060a082015181600101600d6101000a81548160ff02191690831515021790555060c0820151816002015560e08201518160030160006101000a81548163ffffffff021916908363ffffffff1602179055506101008201518160030160046101000a81548163ffffffff021916908363ffffffff1602179055505050503073ffffffffffffffffffffffffffffffffffffffff166108fc349081150290604051600060405180830381858888f19350505050158015611ddb573d6000803e3d6000fd5b506001915050949350505050565b600160205281600052604060002081815481101515611e0457fe5b9060005260206000209060030201600091509150508060000160009054906101000a900473ffffffffffffffffffffffffffffffffffffffff16908060010154908060020160009054906101000a900461ffff16908060020160029054906101000a900461ffff16908060020160049054906101000a900467ffffffffffffffff16905085565b6000806000806001600087815260200190815260200160002080549050925060009150600090505b82811015611f32578467ffffffffffffffff166001600088815260200190815260200160002082815481101515611ee657fe5b906000526020600020906003020160020160049054906101000a900467ffffffffffffffff1667ffffffffffffffff161415611f255781806001019250505b8080600101915050611eb3565b81935050505092915050565b803073ffffffffffffffffffffffffffffffffffffffff163110151515611f6457600080fd5b6000809054906101000a900473ffffffffffffffffffffffffffffffffffffffff1673ffffffffffffffffffffffffffffffffffffffff166108fc829081150290604051600060405180830381858888f19350505050158015611fcb573d6000803e3d6000fd5b5050565b6000600360003373ffffffffffffffffffffffffffffffffffffffff1673ffffffffffffffffffffffffffffffffffffffff168152602001908152602001600020549050803073ffffffffffffffffffffffffffffffffffffffff16311015151561203957600080fd5b80600360003373ffffffffffffffffffffffffffffffffffffffff1673ffffffffffffffffffffffffffffffffffffffff168152602001908152602001600020600082825403925050819055503373ffffffffffffffffffffffffffffffffffffffff166108fc829081150290604051600060405180830381858888f193505050501580156120cc573d6000803e3d6000fd5b5050565b600080600260003373ffffffffffffffffffffffffffffffffffffffff1673ffffffffffffffffffffffffffffffffffffffff168152602001908152602001600020805490509150600090505b818110156123f85786600260003373ffffffffffffffffffffffffffffffffffffffff1673ffffffffffffffffffffffffffffffffffffffff1681526020019081526020016000208281548110151561217257fe5b90600052602060002090600402016000015414801561221557508567ffffffffffffffff16600260003373ffffffffffffffffffffffffffffffffffffffff1673ffffffffffffffffffffffffffffffffffffffff168152602001908152602001600020828154811015156121e357fe5b906000526020600020906004020160010160049054906101000a900467ffffffffffffffff1667ffffffffffffffff16145b156123eb576001600260003373ffffffffffffffffffffffffffffffffffffffff1673ffffffffffffffffffffffffffffffffffffffff1681526020019081526020016000208281548110151561226857fe5b9060005260206000209060040201600101600d6101000a81548160ff02191690831515021790555084600260003373ffffffffffffffffffffffffffffffffffffffff1673ffffffffffffffffffffffffffffffffffffffff168152602001908152602001600020828154811015156122dd57fe5b90600052602060002090600402016002018190555083600260003373ffffffffffffffffffffffffffffffffffffffff1673ffffffffffffffffffffffffffffffffffffffff1681526020019081526020016000208281548110151561233f57fe5b906000526020600020906004020160030160006101000a81548163ffffffff021916908363ffffffff16021790555082600260003373ffffffffffffffffffffffffffffffffffffffff1673ffffffffffffffffffffffffffffffffffffffff168152602001908152602001600020828154811015156123bb57fe5b906000526020600020906004020160030160046101000a81548163ffffffff021916908363ffffffff1602179055505b808060010191505061211d565b6001600460003373ffffffffffffffffffffffffffffffffffffffff1673ffffffffffffffffffffffffffffffffffffffff16815260200190815260200160002060008282829054906101000a900463ffffffff160192506101000a81548163ffffffff021916908363ffffffff1602179055506124ca600460003373ffffffffffffffffffffffffffffffffffffffff1673ffffffffffffffffffffffffffffffffffffffff16815260200190815260200160002060009054906101000a900463ffffffff1663ffffffff166124d3565b50505050505050565b6003811415612518576005600081819054906101000a900463ffffffff168092919060010191906101000a81548163ffffffff021916908363ffffffff160217905550505b600881141561255d576005600481819054906101000a900463ffffffff168092919060010191906101000a81548163ffffffff021916908363ffffffff160217905550505b600f8114156125a2576005600881819054906101000a900463ffffffff168092919060010191906101000a81548163ffffffff021916908363ffffffff160217905550505b60158114156125e7576005600c81819054906101000a900463ffffffff168092919060010191906101000a81548163ffffffff021916908363ffffffff160217905550505b505600a165627a7a7230582096e2950d9d557f47b7bb4dcb863071b1649693f974da02dc3fb3d46b30f9d7470029",
  "source": "pragma solidity ^0.4.24;\r\n\r\ncontract BeggarBetting {\r\n\r\n  struct MatchBettingInfo {\r\n    address better;\r\n    uint256 matchId;\r\n    uint16 homeTeamScore;\r\n    uint16 awayTeamScore;\r\n    uint64 bettingPrice;\r\n  }\r\n  struct BetterBettingInfo {\r\n    uint256 matchId;\r\n    uint16 homeTeamScore;\r\n    uint16 awayTeamScore;\r\n    uint64 bettingPrice;\r\n    bool isWinner;\r\n    bool hasReceivedPrize;\r\n    uint256 winningPrize;\r\n    uint32 numOfWinners;\r\n    uint32 numOfBetters;\r\n  }\r\n\r\n  address public owner;\r\n  mapping(uint256 => MatchBettingInfo[]) public matchBettingInfo;\r\n  mapping(address => BetterBettingInfo[]) public betterBettingInfo;\r\n  mapping(address => uint256) public betterBalance;\r\n  mapping(address => uint32) public betterNumWinning;\r\n  uint32 numOfPanhandler;\r\n  uint32 numOfVagabond;\r\n  uint32 numOfTramp;\r\n  uint32 numOfMiddleClass;\r\n\r\n  /**\r\n    * Constructor\r\n    *\r\n    * Create the owner of the contract on first initialization\r\n  */\r\n  constructor() public {\r\n    owner = msg.sender;\r\n  }\r\n\r\n  /**\r\n    * Fallback\r\n    */\r\n  function () public payable {}\r\n\r\n  /**\r\n    * Store betting data submitted by the user\r\n    *\r\n    * Send `msg.value` to this contract\r\n    *\r\n    * @param _matchId The matchId to store\r\n    * @param _homeTeamScore The home team score to store\r\n    * @param _awayTeamScore The away team score to store\r\n    * @param _bettingPrice The betting price to store\r\n    */\r\n  function placeBet(uint256 _matchId, uint16 _homeTeamScore, uint16 _awayTeamScore, uint64 _bettingPrice) public payable returns (bool) {\r\n    require(_bettingPrice == msg.value); // Check ether send by sender is equal to bet amount\r\n    bool result = checkDuplicateMatchId(msg.sender, _matchId, _bettingPrice);\r\n    // Revert if the sender has already placed this bet\r\n    if (result) {\r\n      revert();\r\n    }\r\n    // Store this match's betting info\r\n    matchBettingInfo[_matchId].push(MatchBettingInfo(msg.sender, _matchId, _homeTeamScore, _awayTeamScore, _bettingPrice));\r\n    // Store this better's betting info\r\n    betterBettingInfo[msg.sender].push(BetterBettingInfo(_matchId, _homeTeamScore, _awayTeamScore, _bettingPrice, false, false, 0, 0, 0));\r\n    address(this).transfer(msg.value); // Send the user's betting price to this contract\r\n    return true;\r\n  }\r\n\r\n  /**\r\n    * Claim winning prize by the user\r\n    *\r\n    * Send `winningPrize` to 'msg.sender' from this contract\r\n    *\r\n    * @param _matchId The matchId to find winners\r\n    * @param _homeTeamScore The home team score to find matching score\r\n    * @param _awayTeamScore The away team score to find matching score\r\n    * @param _bettingPrice The betting price to find matching price\r\n    */\r\n  function claimPrizes(uint256 _matchId, uint16 _homeTeamScore, uint16 _awayTeamScore, uint64 _bettingPrice) public returns (bool) {\r\n    uint totalNumBetters = matchBettingInfo[_matchId].length;\r\n    uint32 numOfBetters = 0;\r\n    uint32 numOfWinners = 0;\r\n    uint256 winningPrize = 0;\r\n    uint commissionToOwner = 0;\r\n    bool result = checkPrizeAlreadyReceived(msg.sender, _matchId, _bettingPrice);\r\n    // Revert if the sender has already received the prize\r\n    if (result) {\r\n      revert();\r\n    }\r\n    // Find matching scores among betters who betted for this match & price\r\n    for (uint i = 0; i < totalNumBetters; i++) {\r\n      if (matchBettingInfo[_matchId][i].bettingPrice == _bettingPrice) {\r\n        numOfBetters++;\r\n        if (matchBettingInfo[_matchId][i].homeTeamScore == _homeTeamScore && matchBettingInfo[_matchId][i].awayTeamScore == _awayTeamScore) {\r\n            numOfWinners++;\r\n        }\r\n      }\r\n    }\r\n    // msg.sender is the only winner, gets all the prize and gives a 3% commission to the owner\r\n    if (numOfWinners == 1) {\r\n      commissionToOwner = _bettingPrice * numOfBetters * 3 / 100;\r\n      betterBalance[msg.sender] = (_bettingPrice * numOfBetters) - commissionToOwner;\r\n      winningPrize = (_bettingPrice * numOfBetters) - commissionToOwner;\r\n    // One more winner, divide it equally and gives a 3% commission to the owner\r\n    } else if (numOfWinners > 1) {\r\n      commissionToOwner = ((_bettingPrice * numOfBetters) / numOfWinners) * 3 / 100;\r\n      betterBalance[msg.sender] = ((_bettingPrice * numOfBetters) / numOfWinners) - commissionToOwner;\r\n      winningPrize = ((_bettingPrice * numOfBetters) / numOfWinners) - commissionToOwner;\r\n    }\r\n    _sendCommissionToOwner(commissionToOwner);\r\n    _withdraw();\r\n    _afterClaim(_matchId, _bettingPrice, winningPrize, numOfWinners, numOfBetters);\r\n\r\n    return true;\r\n  }\r\n\r\n  /**\r\n    * Send 3% commission to the contract owner\r\n    *\r\n    * Send `_commission` to `owner` from the winner's prize\r\n    *\r\n    * @param _commission The commission to be sent to the contract owner\r\n    */\r\n  function _sendCommissionToOwner(uint _commission) private {\r\n    require(address(this).balance >= _commission);\r\n    owner.transfer(_commission);\r\n  }\r\n\r\n  /**\r\n    * Send winning prize to the winner\r\n    *\r\n    * Send `balance` to `msg.sender` from the contract\r\n    */\r\n  function _withdraw() private {\r\n    uint256 balance = betterBalance[msg.sender];\r\n    require(address(this).balance >= balance);\r\n    betterBalance[msg.sender] -= balance;\r\n    msg.sender.transfer(balance);\r\n  } \r\n\r\n  /**\r\n    * Modify winner's betting information after receiving the prize\r\n    *\r\n    * Change hasReceivedPrize to true to process info panel\r\n    *\r\n    * @param _matchId The matchId to find msg.sender's info to modify\r\n    * @param _bettingPrice The betting price to find msg.sender's info to modify\r\n    * @param _winningPrize The winning prize to assign value to msg.sender's final betting info\r\n    * @param _numOfWinners The number of winners to assign value to msg.sender's final betting info\r\n    * @param _numOfBetters The number of betters to assign value to msg.sender's final betting info\r\n    */\r\n  function _afterClaim(uint256 _matchId, uint64 _bettingPrice, uint256 _winningPrize, uint32 _numOfWinners, uint32 _numOfBetters) private {\r\n    uint numOfBettingInfo = betterBettingInfo[msg.sender].length;\r\n\r\n    for (uint i = 0; i < numOfBettingInfo; i++) {\r\n      if (betterBettingInfo[msg.sender][i].matchId == _matchId && betterBettingInfo[msg.sender][i].bettingPrice == _bettingPrice) {\r\n        betterBettingInfo[msg.sender][i].hasReceivedPrize = true;\r\n        betterBettingInfo[msg.sender][i].winningPrize = _winningPrize;\r\n        betterBettingInfo[msg.sender][i].numOfWinners = _numOfWinners;\r\n        betterBettingInfo[msg.sender][i].numOfBetters = _numOfBetters;\r\n      }\r\n    }\r\n\r\n    betterNumWinning[msg.sender] += 1;\r\n    _checkPrivilegeAccomplishment(betterNumWinning[msg.sender]);\r\n  }\r\n\r\n /**\r\n    * Find the msg.sender's number of winnings and increment the privilege if it matches\r\n    *\r\n    * Increment one of the privileges if numWinning matches\r\n    */\r\n  function _checkPrivilegeAccomplishment(uint numWinning) private {\r\n    if (numWinning == 3) {\r\n      numOfPanhandler++;\r\n    }\r\n    if (numWinning == 8) {\r\n      numOfVagabond++;\r\n    }\r\n    if (numWinning == 15) {\r\n      numOfTramp++;\r\n    }\r\n    if (numWinning == 21) {\r\n      numOfMiddleClass++;\r\n    }\r\n  }\r\n  \r\n  /**\r\n    * Prevent the user from submitting the same bet again\r\n    *\r\n    * Send `_commission` to `owner` from the winner's prize\r\n    *\r\n    * @param _better The address of the sender\r\n    * @param _matchId The matchId to find the msg.sender's betting info\r\n    * @param _bettingPrice The betting price to find the msg.sender's betting info\r\n    */\r\n  function checkDuplicateMatchId(address _better, uint256 _matchId, uint64 _bettingPrice) public view returns (bool) {\r\n    uint numOfBetterBettingInfo = betterBettingInfo[_better].length;\r\n\r\n    for (uint i = 0; i < numOfBetterBettingInfo; i++) {\r\n      if (betterBettingInfo[_better][i].matchId == _matchId && betterBettingInfo[_better][i].bettingPrice == _bettingPrice) {\r\n        return true;\r\n      }\r\n    }\r\n\r\n    return false;\r\n  }\r\n\r\n  /**\r\n    * Add extra security to prevent the user from trying to receive the winning prize again\r\n    *\r\n    * @param _better The address of the sender\r\n    * @param _matchId The matchId to find the msg.sender's betting info\r\n    * @param _bettingPrice The betting price to find the msg.sender's betting info\r\n    */\r\n  function checkPrizeAlreadyReceived(address _better, uint256 _matchId, uint64 _bettingPrice) public view returns (bool) {\r\n    uint numOfBetterBettingInfo = betterBettingInfo[_better].length;\r\n    // Find if the sender address has already received the prize\r\n    for (uint i = 0; i < numOfBetterBettingInfo; i++) {\r\n      if (betterBettingInfo[_better][i].matchId == _matchId && betterBettingInfo[_better][i].bettingPrice == _bettingPrice) {\r\n        if (betterBettingInfo[_better][i].hasReceivedPrize) {\r\n            return true;\r\n        }\r\n      }\r\n    }\r\n\r\n    return false;\r\n  }\r\n\r\n  /**\r\n    * Constant function to return the user's previous records\r\n    *\r\n    * @param _better The better's address to search betting info\r\n    */\r\n  function getBetterBettingInfo(address _better) public view returns (uint256[], uint16[], uint16[], uint64[]) {\r\n    uint length = betterBettingInfo[_better].length;\r\n    uint256[] memory matchId = new uint256[](length);\r\n    uint16[] memory homeTeamScore = new uint16[](length);\r\n    uint16[] memory awayTeamScore = new uint16[](length);\r\n    uint64[] memory bettingPrice = new uint64[](length);\r\n\r\n    for (uint i = 0; i < length; i++) {\r\n      matchId[i] = betterBettingInfo[_better][i].matchId;\r\n      homeTeamScore[i] = betterBettingInfo[_better][i].homeTeamScore;\r\n      awayTeamScore[i] = betterBettingInfo[_better][i].awayTeamScore;\r\n      bettingPrice[i] = betterBettingInfo[_better][i].bettingPrice;\r\n    }\r\n\r\n    return (matchId, homeTeamScore, awayTeamScore, bettingPrice);\r\n  }\r\n\r\n  /**\r\n    * Constant function to return the user's previous records\r\n    *\r\n    * @param _better The better's address to search betting info\r\n    */\r\n  function getBetterBettingInfo2(address _better) public view returns (bool[], bool[], uint256[], uint32[], uint32[]) {\r\n    uint length = betterBettingInfo[_better].length;\r\n    bool[] memory isWinner = new bool[](length);\r\n    bool[] memory hasReceivedPrize = new bool[](length);\r\n    uint256[] memory winningPrize = new uint256[](length);\r\n    uint32[] memory numOfWinners = new uint32[](length);\r\n    uint32[] memory numOfBetters = new uint32[](length);\r\n\r\n    for (uint i = 0; i < length; i++) {\r\n      isWinner[i] = betterBettingInfo[_better][i].isWinner;\r\n      hasReceivedPrize[i] = betterBettingInfo[_better][i].hasReceivedPrize;\r\n      winningPrize[i] = betterBettingInfo[_better][i].winningPrize;\r\n      numOfWinners[i] = betterBettingInfo[_better][i].numOfWinners;\r\n      numOfBetters[i] = betterBettingInfo[_better][i].numOfBetters;\r\n    }\r\n\r\n    return (isWinner, hasReceivedPrize, winningPrize, numOfWinners, numOfBetters);\r\n  }\r\n\r\n  /**\r\n    * Load the number of participants for the same match and betting price\r\n    *\r\n    * @param _matchId The matchId to find number of participants\r\n    * @param _bettingPrice The betting price to find number of participants\r\n    */\r\n  function getNumOfBettersForMatchAndPrice(uint _matchId, uint64 _bettingPrice) public view returns (uint32) {\r\n    uint numOfBetters = matchBettingInfo[_matchId].length;\r\n    uint32 count = 0;\r\n\r\n    for (uint i = 0; i < numOfBetters; i++) {\r\n      if (matchBettingInfo[_matchId][i].bettingPrice == _bettingPrice) {\r\n        count++;\r\n      }\r\n    }\r\n\r\n    return count;\r\n  }\r\n\r\n  /**\r\n    * Get the number of winnings of the user\r\n    *\r\n    * @param _better The address of the user\r\n    */\r\n  function getBetterNumOfWinnings(address _better) public view returns (uint32) {\r\n    return betterNumWinning[_better];\r\n  }\r\n\r\n  /**\r\n    * Return the current number of accounts who have reached each privileges\r\n    */\r\n  function getInfoPanel() public view returns (uint32, uint32, uint32, uint32) {\r\n    return (numOfPanhandler, numOfVagabond, numOfTramp, numOfMiddleClass);\r\n  }\r\n}",
  "sourcePath": "C:\\Users\\she jong shon\\Desktop\\etc\\projects\\lessons\\Klaytn\\hackathon\\BeggarBetting.SPA\\contracts\\BeggarBetting.sol",
  "compiler": {
    "name": "solc",
    "version": "0.4.25+commit.59dbf8f1.Emscripten.clang"
  },
  "schemaVersion": "2.0.2",
  "updatedAt": "2019-05-13T17:39:10.833Z"
}